:100000000C9474000C9495000C9495000C9495003D
:100010000C9495000C9495000C9495000C9495000C
:100020000C9495000C9495000C9495000C949700FA
:100030000C9495000C9495000C9495000C949500EC
:100040000C9495000C9495000C9495000C949500DC
:100050000C9495000C9495000C9495000C949500CC
:100060000C9495000C9495000C9495000C949500BC
:100070000C9495000C9495000C9495000C949500AC
:100080000C9495000C9495000C9495000C9495009C
:100090000C9495000C9495000C9495000C9495008C
:1000A0000C9495000C9495000C9495000C9495007C
:1000B0000C9495000C9495000C9495000C9495006C
:1000C0000C9495000C9495000C9495000C9495005C
:1000D0000C9495000C9495000C9495000C9495004C
:1000E0000C9495000C94AE0011241FBECFEFD1E20A
:1000F000DEBFCDBF00E00CBF12E0A0E0B2E0E4E55F
:10010000F3E000E00BBF02C007900D92AE30B107E4
:10011000D9F722E0AEE0B2E001C01D92A731B207EC
:10012000E1F70E943D010C94A8010C9400001F927D
:100130000F920FB60F9211248F9380910F0280932C
:100140000E028091060180930F0281E080931002DD
:100150008F910F900FBE0F901F9018958A3049F025
:100160009091C00095FFFCCF8093C60080E090E0A6
:1001700008959091C00095FFFCCF9DE09093C6003C
:10018000EFCF9093C5008093C40086E08093C200B7
:1001900088E98093C10008959091C00095FFFCCF3D
:1001A0008093C60008958091C00087FFFCCF8091A6
:1001B000C60008958091C000881F8827881F089571
:1001C000FC012081222351F031969091C00095FFCF
:1001D000FCCF2093C60021912111F7CF089580E034
:1001E00092E090931402809313021092C50083E36F
:1001F0008093C40086E08093C20088E98093C100A8
:1002000008951092C5008FEF8093C40086E080931C
:10021000C20088E98093C10008959091C00095FFC5
:10022000FCCF8093C60008958091C00087FFFCCF6B
:100230008091C6000895FC019091C00097FFFCCF0B
:100240009091C6009193992329F09A3011F09D3036
:1002500099F711929E2F981B892F0895FC012081F8
:10026000222351F031969091C00095FFFCCF20934E
:10027000C60021912111F7CF08950E94EF008091CF
:10028000070110920701809108019FEF90930801E8
:10029000809168008460809368008FB780688FBF0A
:1002A00080916D0090936D008FE39CE90197F1F7C9
:1002B00000C00000809110028823B1F380910F02EA
:1002C00090E00E94660110921002EECF609113023E
:1002D000709114020C946C010F931F93CF93DF93D2
:1002E000FB01238121FD03C08FEF9FEF2CC022FF74
:1002F00016C046815781248135814217530744F443
:10030000A081B1819D012F5F3F4F318320838C936A
:10031000268137812F5F3F4F3783268314C08B019F
:10032000EC01FB010084F185E02D1995892BE1F6A4
:10033000D80116968D919C911797019617969C93CC
:100340008E931697CE01DF91CF911F910F91089553
:04035000F894FFCF4F
:0E0354000000000200000000AE0000000000EB
:00000001FF
